:060000000C945B000C945F
:1000060000000C9400000C9400000C9400000C946A
:1000160000000C9400000C9400000C9400000C945A
:1000260000000C9400000C9400000C9400000C944A
:1000360000000C9400000C9400000C9400000C943A
:1000460000000C9400000C9400000C940000FEFDCF
:10005600FBF701020304050607080911000F00005B
:1000660000009A99194000000000E8036810001388
:10007600543D25332E3266002564000001002D4EC6
:10008600414E00494E4600002D4E414E000080C0B4
:100096000400600254000C006402580002000400D0
:1000A600740001007602820002007A0294000000C9
:1000B600F894EE27ECBBF1E0FBBFEBBFE5BFF8E140
:1000C600F1BDE1BD8DE0A2E0BB27ED938A95E9F78E
:1000D60080E094E0A0E6ED930197E9F7E6E9F0E029
:1000E60085919591009761F0A591B5910590159030
:1000F600BF01F00105900D920197E1F7FB01F0CFEA
:10010600EFE5EDBFE4E0EEBFC0E6D2E00C94D3002D
:100116000E94900B10E0143070F504E0312F849AA1
:10012600859A869AE12FF0E0E05AFD4FE081E2BB26
:10013600849902C001E03150859B02E0869B03E072
:100146000430B9F0E3E0E39FF001DF010E94C70746
:100156003197EA0FFB1FEC59FD4F5080849BFECF71
:10016600859BFECF869BFECFAEE10E94CA07E52D9A
:1001760004C01F5FD0CFE3E15E2E0E94970B24964A
:100186000895AA93E881E064E7B98BE18A95F1F7CF
:10019600369A349BFECF349AE4B1F5B12196089590
:1001A600EF97EF97689780E1A2E7B0E0E4E6F0E02A
:1001B6000E949C0B00E010E020E030E040E050E0C0
:1001C600E0E0EBBBEABBE8BBEFEFE7BBE0E0E5BB9B
:1001D600EFEFE4BBE0E0E2BBEFE0E1BBEBE3E3BF64
:1001E600E0E0E2BFE5E5ECBFE0E0EFBDEEBDEDBD72
:1001F600ECBDE7BDE6BDEBBDEABDE9BDE8BDE2BDD0
:10020600ECE4E5BDE0E0E4BDE5E5E3BDE0E0E5BF47
:10021600E4BFE9BFEAB9E0E8E8B9E0E0E0BFE0E45E
:10022600E7B9E6E8E6B9E0B7EF71E0BFE0E0EDB9BF
:10023600E6BFA0E10E942C0778940F5F1F4FA0E055
:10024600A0DFDE01A458BF4FED93FC930E94CD07BB
:10025600E8A3F9A36AA37BA3E0E0EA93A0E00E94E7
:10026600E906FE01E95BFF4F0E94EA07ECA1FDA14A
:100276006EA17FA10E94F107DE01A95BBF4F0E941C
:100286001B07A4E60E94CA07A1E07BDFDE01A65891
:10029600BF4FED93FC930E94F8070E94CD07EC8FA9
:1002A600FD8F6E8F7F8FE8E0EA93A0E00E94E9065B
:1002B600FE01B6960E94EA07E8A1F9A16AA17BA110
:1002C6000E94F107DE0196960E941B07A4E60E9493
:1002D600CA071EDFE3E1E51511F40C946602EFE0B0
:1002E600E51551F0E42DF0E0E059FD4F50824394BE
:1002F600E3E0E41509F44424EFE0E51511F00C946D
:10030600300244240E94FF07D3010E946802DE01E6
:10031600A458BF4F0D90BC91A02DFE01EC58FF4F85
:100326000190F081E02DEA1BFB0BBF010E94120831
:100336000E94F807EA1BFB0BDB010E94060BDE019D
:10034600AE58BF4FED93FC93DE01AA58BF4F0D90F8
:100356001D908D919C91D0010E9419080E94600AFF
:10036600DE01AE57BF4FED93FD936D937C93C19A1B
:100376000E941208AA35E0E0BE071CF0A4E6B0E031
:1003860056C00E941208A035E0E0BE071CF0ACE2A1
:10039600B1E04DC00E941208A634E0E0BE0734F07A
:1003A6000E941208A035E0E0BE070CF003C0A0E9E9
:1003B600B1E03DC00E941208DC9734F00E9412089A
:1003C600A634E0E0BE070CF003C0A4EFB1E02FC0F6
:1003D6000E941208D29724F00E941208DC970CF0B3
:1003E60003C0A8E5B2E023C00E941208989724F043
:1003F6000E941208D2970CF003C0ACEBB2E017C013
:100406000E9412085E9724F00E94120898970CF03A
:1004160003C0A0EDB2E00BC00E941208549724F06E
:100426000E9412085E970CF004C0A8E2BAE00E948F
:100436001209C198C098C79A0E9412085A971CF0D0
:10044600A8E2BAE006C00E9412085A972CF4A2E36A
:10045600B0E00E941209C798C698E1E1E51589F453
:100466000E94FF07A2E7B2E00E946802C098C19A04
:10047600C698C79AEDE00E941E08A2E7B2E00E9465
:100486001B070E942208E0917102FF276627772743
:100496000E94F107E4E00E941E08DE01AA57BF4F42
:1004A6000E941B070E942208E0917002FF27662720
:1004B60077270E94F107DE01AA57BF4F0E941B074C
:1004C600E0E00E941E08B9CEFFCFBA93AA93A99185
:1004D600B991E991F99130962AF4E095F095319623
:1004E6006DE26D93E89480E197E20DD088EE93E09B
:1004F6000AD084E6992707D08AE005D06E2F10D05F
:1005060066276C9308956627E817F90720F0639528
:10051600E81BF90BC9F7662311F416F008956894E1
:10052600605D6D9308950E942C08E0E0EA83EFE396
:10053600EB831A930A93EB85FC85EF3FAFEFFA073F
:1005460039F40E943308A4E8B0E00E94A107A9C0CC
:10055600EF3FAFE7FA0739F40E943308A5E8B0E0A9
:100566000E94A1079EC0AC85AA2362F4E985FA859C
:100576006B857C850E941C090E9438080E943D08F4
:10058600EDE2EC93A885A73010F0E6E0E887188541
:10059600E12F1150E03039F00E9444080E944908CA
:1005A6000E945008F5CF0E9455080E94C2090E9479
:1005B600380810E0E0E0F0E060E87FE30E945008D1
:1005C6000E9455080E94A50A88F00E9444080E94CD
:1005D6005E080E9450081F5F173238F00E943308E9
:1005E600A9E8B0E00E94A1075CC0EACF103029F468
:1005F6000E943D08E0E3EC9329C0E12F1150E03062
:1006060029F10E9444080E9449080E946508DF01FA
:10061600CB010E948A070E9450080E9455080E943A
:10062600600A0E944F090E2F0E943D08E02FE05DF0
:10063600EC930E94C7070E9444080E9419080E9472
:10064600120A0E946C080E947108D7CFE885E03034
:1006560021F10E943D08EEE2EC93E885E150E8873F
:10066600EF5FD9F00E946C080E945E080E9438086D
:10067600E985FA856B857C850E944F090E2F0E94BD
:100686003D08E02FE05DEC930E94C7070E946C08CE
:100696000E9419080E947108E0CFAE81BF81E0E098
:1006A600EC93198108812D960895BA93AA931A930B
:1006B6000A93AA81BB8112960E945A0B309729F1A0
:1006C600AA81BB8114960E945A0B8F01309761F064
:1006D6000230E0E01E07C0F0F80131978F01AA81D1
:1006E600BB811496ED93FC93AA81BB8112960E945E
:1006F60076083197AC81A083AA81BB810E945A0BF0
:10070600FF2312F00E94760806C0AA81BB81EFEF94
:10071600FFEFED93FC9319810881259608950E94B9
:100726002C08E0E8EA83EFE3EB830E94900BEE856A
:10073600FF85EF3FAFEFFA0749F4E885F985FA93AD
:10074600EA93AEE8B0E00E94A107CCC0EF3FAFE766
:10075600FA0749F4E885F985FA93EA93AFE8B0E039
:100766000E94A107BFC0AB85A73010F0E6E0EB877B
:100776001B85E12F1150E03029F00E947C080E9471
:100786008108F7CFEC85FD856E857F850E948A0BF3
:1007960031F430E00E947C080E94810838C03B8515
:1007A6000E94860809F010F40C94E9030E947C0864
:1007B6000E9481080E94860840F00E9491080E94CB
:1007C60049080E9496083F5FF5CF0FC00E94860831
:1007D60040F40E9491080E945E080E9496083150DB
:1007E600F5CF0E947C080E948108EC85FD856E8508
:1007F6007F850E9465080E9496080E94860838F048
:100806000E9491080E9449080E9496083F5F10E0E6
:10081600EB85E117D8F1AC81BD818E819F810E9465
:1008260049080E946508DF01CB010E948A070E94E1
:100836008108EC81FD816E817F810E9491080E9472
:10084600600A0E944F090E2F0E949B08E02FE05D70
:10085600EC93E02FFF27662777270E948809AC8153
:10086600BD818E819F810E94120A0E9491080E947A
:100876007D0B0E94BB090E949608E12F1F5FE030A6
:1008860039F60E949B08EEE2EC93C2CF0E94A208C2
:100896003197AA85A08330302CF43195A885B98587
:1008A600EDE203C0A885B985EBE2EC930E94A208AD
:1008B6000E94A2083197BF01A32FEAE00E94EE0A28
:1008C600E05DDB01EC930E94A2083197BF01A32FE4
:1008D600EAE00E94300BE05DDB01EC93A885B98568
:1008E600E0E0EC930E94970B60960895BA93AA9362
:1008F600EF9761970E948E0B10E0FE01E85AFF4FBA
:100906000190F081E02DE887F987FE01EA5AFF4F52
:100916000190F081E02DEE83FF83AE81BF81E0E0A0
:10092600F0E0ED93FC93DE01A45ABF4F0E947608D7
:100936003197E4912E2FE03011F40C948C06E12FC0
:10094600E03039F4253211F411E002C00E94A80803
:10095600DFC1E130C1F4253219F40E94A808D7C1DD
:1009660012E0E0E0ED8B00E02D3211F401E0D0C1A1
:100976002B3219F4EBE2ED8BCBC1203219F4E0E215
:10098600ED8BC6C102C0E23039F450E013E02033EB
:1009960011F40068BDC102C0E33091F4203310F0B9
:1009A6002A3308F007C0AAE05A9F502DE22FE053E1
:1009B6005E0FAEC140E02E3211F414E0A9C10FC0A3
:1009C600E43099F4203310F02A3308F008C00062AE
:1009D600AAE04A9F402DE22FE0534E0F99C12C36D4
:1009E60019F4026015E094C104C0E53011F00C94CE
:1009F6008B06E22FE33659F40E94AF080E94B60830
:100A06000E94AF08A481AA930E94BD0880C1E53464
:100A160011F0E53609F404C0E63611F00C945905D8
:100A2600FE017696EE87FF870E94C3080E945E0B42
:100A36000E94CA080E94CF08AD85AA2322F0AD897C
:100A4600AB3249F017C00E94D1080E941C090E94CF
:100A5600CA08EDE2ED8B07FF05C0ED89EA930E9417
:100A6600BD0808C0EE85FF853196EE87FF87319772
:100A7600AD89A08305FF46E0263651F40E94D108D1
:100A86000E94730B4A93AB89BC890E94960209C0E7
:100A96000E94D1080E94730B4A932A93AC89BD89A0
:100AA6003EDEFE0176960E94D6081EC0E33739F474
:100AB6000E94CF080E94DE080E94D6080EC0E037CA
:100AC600C1F40E94CF080E94DE08EE87FF87AE853C
:100AD600BF850E94BA071E2F08600F77403011F0BD
:100AE600411708F001C0142F40E0E0E0EC8B30E045
:100AF6006EC0E43611F0E93611F4046002C0E53741
:100B0600A1F4EAE0EC8B01FF08C0E0E0FAEC6AE948
:100B16007BE30E94E3081AE023C0E0E1F7E260E02D
:100B260070E00E94E30815E01BC0E83511F4086088
:100B360004C0E83711F00C948A06E0E1EC8B01FF63
:100B460008C0E0E0F0E060E070E10E94E30818E031
:100B560007C0E0E0F0E160E070E00E94E30814E026
:100B6600403011F00F7701C041E001FF08C00E943C
:100B7600CF080E94C30814960E945E0B0FC002FFA6
:100B860007C00E94CF080E94DE080E94DB0A06C04A
:100B96000E94CF080E94DE0866277727EA87FB8730
:100BA6006C877D8702FF12C0AD85AA2342F40E949E
:100BB600D1080E94CD0A0E94CA08EDE2ED8BED89AC
:100BC600E03019F01F5F4F5F01C00B7F342F00FD2F
:100BD60014C0151710F4351708F00FC007FF08C02A
:100BE60002FF04C00B7F2D89115001C020E301C014
:100BF60020E20E94A8085150ECCF141790F400612F
:100C060002FF06C00E94E80809F0515011504150F9
:100C1600E0E3EA930E94BD08503009F0515041507C
:100C2600ECCF312FEC89E030B9F43030A1F003FF7E
:100C360006C0EE85FF852591EE87FF8705C0AE8548
:100C4600BF852D91AE87BF870E94A808503009F056
:100C560051503150EACF51C00E94FA080E940B0B46
:100C66002E2F2A3030F003FF02C0295C01C0295A1A
:100C760001C0205D04FD21C0213360F4A889B98933
:100C86008A899B89A130E0E0BE07E0E08E07E0E0BC
:100C96009E0709F40BC0431740F4531710F000FFEA
:100CA60001C010C020E207FF08C020E3006102FF78
:100CB60004C00E94E80809F051500E94A80850306C
:100CC60009F0515031500E94FA080E943C0B0E94D4
:100CD600CA08EC89A889B9898A899B89FF2766276A
:100CE60077270E940B0B0E94E308E889F9896A8935
:100CF6007B890E948A0B09F0AFCF00FF08C05030F5
:100D060031F05150E0E2EA930E94BD08F8CF10E0BE
:100D16000ACEAE81BF810E945A0B0E94950BEF96B8
:100D26006F960895FF92F82E26970E94900B0E94C8
:100D36000309309719F4EFEFFFEF23C0DE01169693
:100D46000E94C50A8D010E940309EE83FF83E0E03D
:100D5600E887E987DE011A960E94C50A0E945A0BA7
:100D6600FA93EA931A930A93E8E5F3E0FA93EA937F
:100D7600DE011A96BBDD9F01AE81BF81E0E0EC93F8
:100D8600F9010E94970B2A96FF900895AA93E5B35E
:100D9600EF70AE2FE881E07FEA2BE5BB85E08A9510
:100DA600F1F7AA9A8DE08A95F1F7AA988DE08A95CF
:100DB600F1F77AC0AA93A881E9DFE881E295E88392
:100DC600A881E4DF85E88A95F1F76EC0AA93E881E9
:100DD600F0E0E658FD4FE081A981AE0FEBDFA98078
:100DE600D88022960895A2E0E5DFA3E00E94CA0714
:100DF600ACE0E0DFA1E0DEDFA3E00E94CA07E0E0AE
:100E0600DE2EAE2E0895AA93A881AA3011F0AC1456
:100E160048F0E0E0EA93D394AD2DD8DFA881AA305C
:100E260009F442C0A394A89AA881C4DFA8983CC03C
:100E3600BA93AA931A93A981BA81ED91A983BA8329
:100E46001E2FE03019F0A12FDEDFF5CF1881239693
:100E56000895AA93E4B3E06FE4BBA29AA09AA19A7C
:100E6600AA98A898A998C880E881E058E0937C02DF
:100E7600E881E054E0937D02A4E10E94CA070E9443
:100E86000A090E940A090E940A09A0E27FDF88EC8B
:100E960090E00197F1F7A8E28DDFA4E08BDFA5E8EB
:100EA60089DFA6E087DF9FDF219608950E94780BF1
:100EB6007B816A81F981E88177FB770F67FD716035
:100EC600972F9E5781F078F0983190F4AA27BB2788
:100ED600882708948795B795A7959A95D1F7EA2319
:100EE600FB23682305C0E8947727EE27FF276627AC
:100EF6006F77769508F4606877F9A991B991899129
:100F06009991EA17FB076807790797FB08950E94EE
:100F1600780B0E94690B0E9459070E946E0B19F408
:100F26000E94640B09C0E6F70E94640BA0E0B0E0E3
:100F360080E89FE30E94BB0924960895BA93AA937A
:100F4600E991F991A991B991CD0105900D920020F1
:100F5600E1F7FC010895BA93AA93A991B991EE27F6
:100F6600FF276D91662311F03196FBCF0895BA9352
:100F7600AA93AA27BB27E991F9910590002011F0C1
:100F86001196FBCFFD010895E02FF0E00895B0E043
:100F96000C9412090E94DB0A0E948809A0E0B0E4C2
:100FA6008CE995E40E94120ADF01CB01E0E0F0EC47
:100FB6006FE774E40E94600ADF01CB01E0E0F0E82D
:100FC60068E873E40E947D0B0E94BB090895FA93BA
:100FD600EA93E6E7F0E0FA93EA9308950E94730B2A
:100FE60084E00E94950628960895FE01E658FF4F74
:100FF6000190F081E02D0895A0917102EAE0EA9F48
:10100600F001DF01E0917002F0E0EA0FFB1FDE0164
:10101600AC58BF4FED93FC93FA93EA930895DE0123
:10102600AC58BF4F0D90BC91A02D08950E94DB0ACD
:101036000E9488090895EA93A1E00C94E906FE014E
:10104600EA57FF4FFA93EA93EEE7F0E0FA93EA9352
:101056000895BA93AA932497E0E0E883E983089574
:10106600EE81FF81FA93EA930895E987FA876B8701
:101076007C870895AE81BF811196AE83BF83119799
:101086000895AA81BB818C819D810895EDECFCECCD
:101096006CEC7DE30E94120A0895EA83FB836C835D
:1010A6007D830895EA81FB816C817D81A985BA855E
:1010B6008B859C850895E0E0F0E060E271E40E9493
:1010C600120A0895A0E0B0E080E09FE30E94C20902
:1010D6000895A985BA858B859C8508950E947D0B08
:1010E6000E94BB09C2CFED91FD913196FE93EE931E
:1010F6000895AC81BD818E819F81DDCFEC83FD8318
:101106006E837F830895EC81FD816E817F81AC853E
:10111600BD858E859F850E94A50A0895AC85BD85EF
:101126008E859F850895EC87FD876E877F87089556
:10113600A885B9851196A887B98711970895E88576
:10114600F9853196E887F98708952A93AF81B8859E
:10115600E985FA8509950895FE01E65AFF4F019043
:10116600F081E02D08953497DE01A65ABF4FED9326
:10117600FC930895AF81B885E985FA8509950895A8
:10118600DE01A65ABF4F0D90BC91A02D0895EA87A7
:10119600FB876C877D870895DFDFE5CFEA85FB85D2
:1011A6006C857D850895EE87FF87AE85BF850E9495
:1011B600AE071E2F0895E4DF14960E945A0B089579
:1011C600E88BF98B6A8B7B8B08950B7FED89EA930D
:1011D600DE01A95ABF4F0D90BC91A02DFE01E75A22
:1011E600FF4F0190F081E02D099550300895E88970
:1011F600F9896A897B89AA85BB858C859D85089531
:10120600DE011C960E94C50A0E945A0B0895A0E3AF
:101216000E94C90688EC90E00197F1F708951096B0
:1012260039F080ED97E00197F1F7A8951197C9F786
:10123600089530976040704009F07058089555231E
:1012460042F4503811F4E0FF04C03196691F791F4B
:101256006BF050E8572711F45F93CFC05F3F31F032
:10126600660F000C57956795752F08955F930020BC
:101276000AF0CFC0C8C050E8192E1522880F991F52
:101286009527550F879550E8072E0522660F771F7D
:101296007527550F67950895689401C0E8945F9384
:1012A600F2DF703818F07F3F08F4A7C056E1571BED
:1012B600AAF4519558300EF4593030F0EFEFFFEFA5
:1012C6006FEF7FE777F91AC077275523B9F0EE0F4E
:1012D600FF1F661F771F5A95D1F710C07727583022
:1012E60028F0EF2FF62F672F5850F9CF552331F0FE
:1012F60076956795F795E7955A95D1F700200AF404
:1013060049D15F910895689401C0E8943097604090
:101316007040B1F0002426F0772312F400943AD1FD
:10132600172E7EE1112032F07A95EE0FFF1F661F11
:10133600111CF9CFEF2FF62F612D5F938ADF5F9196
:1013460008954F93AF01FD01DA01AB01BC01CA015B
:10135600402D012C142E4F910895EA0FFB1F681F94
:101366000895E095F0956095EF5FFF4F6F4F0895F4
:101376005F9381DF903871F150E8152604C05F93C2
:101386007ADF903839F1703821F1572F591B2BF13C
:1013960012F4D7DFFACF583118F0AA27BB278827CF
:1013A600583028F0AB2FB82F88275850F9CF55233F
:1013B60029F08695B795A7955A95D9F7502D5125B9
:1013C60072F0CBDF38F46795F795E795739513F4CC
:1013D60020C0B7DF3EDF5F910895D8F7FBCFEA1B49
:1013E600FB0B680B51F010F40094BBDF662392F3FD
:1013F600EE0FFF1F661F7A95CBF7EE27FF276627AE
:1014060077275F910895EFEFFFEF6FE77FEF5F912B
:101416000895EFEFFFEF6FE77FE75F9108955F9322
:101426002ADF703851F3903841F301240894791F6C
:1014360023F41CF300203AF3ECCF0F921F932F9363
:101446003F934F93112722279927689FA0018F9FCB
:10145600302D410D591F6B9F300D411D591F8E9F19
:1014660027D0BF9F25D06A9F23D0BE9F1DD0AF9F98
:101476001BD0AE9F110D291F391F491F591FE32F7E
:10148600F42F652F522F4F913F912F911F910F905F
:1014960066232AF0550FEE1FFF1F661F02C07395C5
:1014A6004BF2CDDE5F910895100D211D391F02C04C
:1014B600200D311D491F591F08955F93DCDE7038DA
:1014C60021F411200AF49FCFA4CF903809F495CFC8
:1014D60001240894970B1BF4D4F30020F3CF792F43
:1014E6001F932F933F934F931124112722273327BE
:1014F6004427552790E2AE17BF078607410730F00D
:10150600AE1BBF0B860B410B089401C08894551F78
:10151600221F331F111CAA1FBB1F881F441F9A9529
:1015260051F7F901612D4F913F912F911F9166233C
:1015360032F0550FEE1FFF1F661F7A9543F27FDECE
:101546005F91089599239AF0772342F0971748F010
:1015560029F4AE17BF07860720F031F098948894D7
:101566000895989408940895189488940895772374
:10157600C2F7971798F3A9F7EA17FB07680788F3E6
:1015860099F3ECCF0024AF0DB01D0895F195E195C8
:10159600F0400895F09560957095E195FF4F6F4F77
:1015A6007F4F0895FE2FFF0FFF0B6F2F7F2F08959C
:1015B6006F2F660F660B762F0895002498E0AA0F0A
:1015C600001C0E1A10F40E0E01C0A1609A95B9F710
:1015D600EA2FA02D089551D0F0DF0EF4E19508957D
:1015E6000024112490E1AA0FBB1F001C111C0E1A27
:1015F6001F0A18F40E0E1F1E01C0A1609A9599F7D6
:10160600FD01D001089545D0EBDF0EF4BFDF08954C
:101616003F934F935F93002411244427552730E2CC
:10162600AA0FBB1F881F991F001C111C441F551FA2
:101636000E1A1F0A460B570B28F40E0E1F1E461FC6
:10164600571F01C0A1603A9559F7FD01BC01D001B1
:10165600CA015F914F913F910895E894A7FF02C098
:10166600A1956894E7FDE195A8DFEA2F0EF4E195D0
:101676000895CEDFFD01BC010895E894E7FF02C09E
:10168600E1956894A7FF04C0A19500F8039400FAB9
:101696000895E894F7FF02C079DF6894B7FF06C0A3
:1016A600A095B095119600F8039400FA0895ED916F
:1016B600FC9111970895ED91FD916D917C91139791
:1016C6000895E881F9816A817B810895A881B981AD
:1016D6008A819B810895E883F9836A837B830895D1
:1016E6007A936A93FA93EA9308959A938A93BA93AC
:1016F600AA930895182E862F612D192E972F712DD6
:101706001B2EBF2FF12D1A2EAE2FE12D08953097E7
:101716006040704008955A934A933A932A931A93D5
:101726000A9308955D814C813B812A811981088144
:101736000895AC0FBD1F05900D928A95E1F70895A7
:00000001FF
